{
  "contractName": "Event",
  "abi": [
    {
      "inputs": [
        {
          "internalType": "uint8",
          "name": "_total",
          "type": "uint8"
        },
        {
          "internalType": "uint256",
          "name": "_price",
          "type": "uint256"
        }
      ],
      "payable": false,
      "stateMutability": "nonpayable",
      "type": "constructor"
    },
    {
      "anonymous": false,
      "inputs": [
        {
          "indexed": false,
          "internalType": "address",
          "name": "_from",
          "type": "address"
        },
        {
          "indexed": false,
          "internalType": "uint256",
          "name": "_amount",
          "type": "uint256"
        }
      ],
      "name": "Deposit",
      "type": "event"
    },
    {
      "anonymous": false,
      "inputs": [
        {
          "indexed": false,
          "internalType": "address",
          "name": "_to",
          "type": "address"
        },
        {
          "indexed": false,
          "internalType": "uint256",
          "name": "_amount",
          "type": "uint256"
        }
      ],
      "name": "Refund",
      "type": "event"
    },
    {
      "payable": false,
      "stateMutability": "nonpayable",
      "type": "fallback"
    },
    {
      "constant": true,
      "inputs": [],
      "name": "owner",
      "outputs": [
        {
          "internalType": "address payable",
          "name": "",
          "type": "address"
        }
      ],
      "payable": false,
      "stateMutability": "view",
      "type": "function"
    },
    {
      "constant": true,
      "inputs": [],
      "name": "price",
      "outputs": [
        {
          "internalType": "uint256",
          "name": "",
          "type": "uint256"
        }
      ],
      "payable": false,
      "stateMutability": "view",
      "type": "function"
    },
    {
      "constant": true,
      "inputs": [
        {
          "internalType": "address",
          "name": "",
          "type": "address"
        }
      ],
      "name": "registrations",
      "outputs": [
        {
          "internalType": "uint8",
          "name": "noOfTickets",
          "type": "uint8"
        },
        {
          "internalType": "uint256",
          "name": "amount",
          "type": "uint256"
        },
        {
          "internalType": "string",
          "name": "email",
          "type": "string"
        }
      ],
      "payable": false,
      "stateMutability": "view",
      "type": "function"
    },
    {
      "constant": true,
      "inputs": [],
      "name": "ticketsSold",
      "outputs": [
        {
          "internalType": "uint256",
          "name": "",
          "type": "uint256"
        }
      ],
      "payable": false,
      "stateMutability": "view",
      "type": "function"
    },
    {
      "constant": true,
      "inputs": [],
      "name": "totalTickets",
      "outputs": [
        {
          "internalType": "uint8",
          "name": "",
          "type": "uint8"
        }
      ],
      "payable": false,
      "stateMutability": "view",
      "type": "function"
    },
    {
      "constant": false,
      "inputs": [
        {
          "internalType": "string",
          "name": "_email",
          "type": "string"
        },
        {
          "internalType": "uint8",
          "name": "_amount",
          "type": "uint8"
        }
      ],
      "name": "buyTickets",
      "outputs": [],
      "payable": true,
      "stateMutability": "payable",
      "type": "function"
    },
    {
      "constant": false,
      "inputs": [
        {
          "internalType": "address payable",
          "name": "_customer",
          "type": "address"
        }
      ],
      "name": "refundAmount",
      "outputs": [],
      "payable": true,
      "stateMutability": "payable",
      "type": "function"
    },
    {
      "constant": false,
      "inputs": [],
      "name": "withdraw",
      "outputs": [],
      "payable": true,
      "stateMutability": "payable",
      "type": "function"
    },
    {
      "constant": true,
      "inputs": [
        {
          "internalType": "address",
          "name": "_buyer",
          "type": "address"
        }
      ],
      "name": "balanceOfRegistrant",
      "outputs": [
        {
          "internalType": "uint256",
          "name": "balance",
          "type": "uint256"
        }
      ],
      "payable": false,
      "stateMutability": "view",
      "type": "function"
    },
    {
      "constant": false,
      "inputs": [],
      "name": "kill",
      "outputs": [],
      "payable": false,
      "stateMutability": "nonpayable",
      "type": "function"
    }
  ],
  "bytecode": "0x608060405234801561001057600080fd5b50604051610fcb380380610fcb8339818101604052604081101561003357600080fd5b810190808051906020019092919080519060200190929190505050336000806101000a81548173ffffffffffffffffffffffffffffffffffffffff021916908373ffffffffffffffffffffffffffffffffffffffff16021790555081600260006101000a81548160ff021916908360ff1602179055508060038190555060006001819055505050610f02806100c96000396000f3fe6080604052600436106100915760003560e01c8063942e6bcf11610059578063942e6bcf146101cc578063a035b1fe146102aa578063acde5d28146102d5578063cb323b6114610319578063dd11247e1461037e57610091565b80633ccfd60b146100a357806341c0e1b5146100ad5780634bd39771146100c45780638da5cb5b1461014a5780638f15024f146101a1575b34801561009d57600080fd5b50600080fd5b6100ab6103af565b005b3480156100b957600080fd5b506100c2610472565b005b610148600480360360408110156100da57600080fd5b81019080803590602001906401000000008111156100f757600080fd5b82018360208201111561010957600080fd5b8035906020019184600183028401116401000000008311171561012b57600080fd5b9091929391929390803560ff169060200190929190505050610577565b005b34801561015657600080fd5b5061015f610929565b604051808273ffffffffffffffffffffffffffffffffffffffff1673ffffffffffffffffffffffffffffffffffffffff16815260200191505060405180910390f35b3480156101ad57600080fd5b506101b661094e565b6040518082815260200191505060405180910390f35b3480156101d857600080fd5b5061021b600480360360208110156101ef57600080fd5b81019080803573ffffffffffffffffffffffffffffffffffffffff169060200190929190505050610954565b604051808460ff1660ff16815260200183815260200180602001828103825283818151815260200191508051906020019080838360005b8381101561026d578082015181840152602081019050610252565b50505050905090810190601f16801561029a5780820380516001836020036101000a031916815260200191505b5094505050505060405180910390f35b3480156102b657600080fd5b506102bf610a23565b6040518082815260200191505060405180910390f35b610317600480360360208110156102eb57600080fd5b81019080803573ffffffffffffffffffffffffffffffffffffffff169060200190929190505050610a29565b005b34801561032557600080fd5b506103686004803603602081101561033c57600080fd5b81019080803573ffffffffffffffffffffffffffffffffffffffff169060200190929190505050610d49565b6040518082815260200191505060405180910390f35b34801561038a57600080fd5b50610393610d95565b604051808260ff1660ff16815260200191505060405180910390f35b6000809054906101000a900473ffffffffffffffffffffffffffffffffffffffff1673ffffffffffffffffffffffffffffffffffffffff163373ffffffffffffffffffffffffffffffffffffffff161461040857600080fd5b6000809054906101000a900473ffffffffffffffffffffffffffffffffffffffff1673ffffffffffffffffffffffffffffffffffffffff166108fc479081150290604051600060405180830381858888f1935050505015801561046f573d6000803e3d6000fd5b50565b6000809054906101000a900473ffffffffffffffffffffffffffffffffffffffff1673ffffffffffffffffffffffffffffffffffffffff163373ffffffffffffffffffffffffffffffffffffffff16146104cb57600080fd5b600047111561053d576000809054906101000a900473ffffffffffffffffffffffffffffffffffffffff1673ffffffffffffffffffffffffffffffffffffffff166108fc479081150290604051600060405180830381858888f1935050505015801561053b573d6000803e3d6000fd5b505b6000809054906101000a900473ffffffffffffffffffffffffffffffffffffffff1673ffffffffffffffffffffffffffffffffffffffff16ff5b600260009054906101000a900460ff1660ff166001541061059757600080fd5b60006003548260ff16029050600260009054906101000a900460ff1660ff168260ff166001540111156105c957600080fd5b803410156105d657600080fd5b6000600460003373ffffffffffffffffffffffffffffffffffffffff1673ffffffffffffffffffffffffffffffffffffffff16815260200190815260200160002060010154111561075d5780600460003373ffffffffffffffffffffffffffffffffffffffff1673ffffffffffffffffffffffffffffffffffffffff1681526020019081526020016000206001015401600460003373ffffffffffffffffffffffffffffffffffffffff1673ffffffffffffffffffffffffffffffffffffffff1681526020019081526020016000206001018190555081600460003373ffffffffffffffffffffffffffffffffffffffff1673ffffffffffffffffffffffffffffffffffffffff16815260200190815260200160002060000160009054906101000a900460ff1601600460003373ffffffffffffffffffffffffffffffffffffffff1673ffffffffffffffffffffffffffffffffffffffff16815260200190815260200160002060000160006101000a81548160ff021916908360ff160217905550610852565b80600460003373ffffffffffffffffffffffffffffffffffffffff1673ffffffffffffffffffffffffffffffffffffffff1681526020019081526020016000206001018190555081600460003373ffffffffffffffffffffffffffffffffffffffff1673ffffffffffffffffffffffffffffffffffffffff16815260200190815260200160002060000160006101000a81548160ff021916908360ff1602179055508383600460003373ffffffffffffffffffffffffffffffffffffffff1673ffffffffffffffffffffffffffffffffffffffff1681526020019081526020016000206002019190610850929190610da8565b505b8160ff1660015401600181905550803411156108b857600081340390503373ffffffffffffffffffffffffffffffffffffffff166108fc829081150290604051600060405180830381858888f193505050501580156108b5573d6000803e3d6000fd5b50505b7fe1fffcc4923d04b559f4d29a8bfc6cda04eb5b0d3c460751c2402c5c5cc9109c3334604051808373ffffffffffffffffffffffffffffffffffffffff1673ffffffffffffffffffffffffffffffffffffffff1681526020018281526020019250505060405180910390a150505050565b6000809054906101000a900473ffffffffffffffffffffffffffffffffffffffff1681565b60015481565b60046020528060005260406000206000915090508060000160009054906101000a900460ff1690806001015490806002018054600181600116156101000203166002900480601f016020809104026020016040519081016040528092919081815260200182805460018160011615610100020316600290048015610a195780601f106109ee57610100808354040283529160200191610a19565b820191906000526020600020905b8154815290600101906020018083116109fc57829003601f168201915b5050505050905083565b60035481565b6000600460008373ffffffffffffffffffffffffffffffffffffffff1673ffffffffffffffffffffffffffffffffffffffff168152602001908152602001600020600101541115610d4657600460008273ffffffffffffffffffffffffffffffffffffffff1673ffffffffffffffffffffffffffffffffffffffff168152602001908152602001600020600101544710610d4557600460008273ffffffffffffffffffffffffffffffffffffffff1673ffffffffffffffffffffffffffffffffffffffff16815260200190815260200160002060000160009054906101000a900460ff1660ff16600154036001819055506000600460008373ffffffffffffffffffffffffffffffffffffffff1673ffffffffffffffffffffffffffffffffffffffff16815260200190815260200160002060000160006101000a81548160ff021916908360ff1602179055506040518060400160405280600181526020017f2000000000000000000000000000000000000000000000000000000000000000815250600460008373ffffffffffffffffffffffffffffffffffffffff1673ffffffffffffffffffffffffffffffffffffffff1681526020019081526020016000206002019080519060200190610c01929190610e28565b506000600460008373ffffffffffffffffffffffffffffffffffffffff1673ffffffffffffffffffffffffffffffffffffffff1681526020019081526020016000206001015490506000600460008473ffffffffffffffffffffffffffffffffffffffff1673ffffffffffffffffffffffffffffffffffffffff168152602001908152602001600020600101819055508173ffffffffffffffffffffffffffffffffffffffff166108fc829081150290604051600060405180830381858888f19350505050158015610cd7573d6000803e3d6000fd5b507fbb28353e4598c3b9199101a66e0989549b659a59a54d2c27fbb183f1932c8e6d8282604051808373ffffffffffffffffffffffffffffffffffffffff1673ffffffffffffffffffffffffffffffffffffffff1681526020018281526020019250505060405180910390a1505b5b50565b6000600460008373ffffffffffffffffffffffffffffffffffffffff1673ffffffffffffffffffffffffffffffffffffffff168152602001908152602001600020600101549050919050565b600260009054906101000a900460ff1681565b828054600181600116156101000203166002900490600052602060002090601f016020900481019282601f10610de957803560ff1916838001178555610e17565b82800160010185558215610e17579182015b82811115610e16578235825591602001919060010190610dfb565b5b509050610e249190610ea8565b5090565b828054600181600116156101000203166002900490600052602060002090601f016020900481019282601f10610e6957805160ff1916838001178555610e97565b82800160010185558215610e97579182015b82811115610e96578251825591602001919060010190610e7b565b5b509050610ea49190610ea8565b5090565b610eca91905b80821115610ec6576000816000905550600101610eae565b5090565b9056fea265627a7a72315820fb0baf3f56459d7bda98c4da9335e1eafacd72147cb8679366d9b711b43b5c4964736f6c63430005100032",
  "source": "pragma solidity ^ 0.5.0;\r\n\r\ncontract Event {\r\n\r\nstruct Registration {\r\n\r\n    uint8 noOfTickets;\r\n    uint amount;\r\n    string email;\r\n}\r\n    address payable public owner;\r\n    uint public ticketsSold;\r\n    uint8 public totalTickets;\r\n    uint public price;\r\n\r\n    mapping (address => Registration) public registrations;\r\n\r\n    event Deposit(address _from, uint _amount);\r\n    event Refund(address _to, uint _amount);\r\n\r\n    modifier onlyOwner() {\r\n        require (msg.sender == owner);\r\n        _;\r\n    }\r\n\r\n    modifier soldout() {\r\n        require (ticketsSold < totalTickets);\r\n        _;\r\n    }\r\n\r\n    \r\n    constructor (uint8 _total,\r\n                 uint _price)\r\n                 public {\r\n    owner = msg.sender;\r\n    totalTickets = _total;\r\n    price = _price;\r\n    ticketsSold = 0;\r\n    }\r\n    \r\n    function buyTickets (string calldata _email,\r\n                         uint8 _amount)\r\n                         soldout()\r\n                         external\r\n                         payable {\r\n    \r\n       uint totalAmount = _amount * price;\r\n       \r\n       require(ticketsSold + _amount <= totalTickets); \r\n    \r\n      if(msg.value < totalAmount)\r\n            revert();\r\n    \r\n       if(registrations[msg.sender].amount > 0)\r\n       {\r\n            registrations[msg.sender].amount = registrations[msg.sender].amount + totalAmount;\r\n            registrations[msg.sender].noOfTickets = registrations[msg.sender].noOfTickets + _amount;\r\n       }\r\n       else {\r\n            registrations[msg.sender].amount = totalAmount;\r\n            registrations[msg.sender].noOfTickets = _amount;\r\n            registrations[msg.sender].email = _email;\r\n       }\r\n    \r\n       ticketsSold = ticketsSold + _amount;\r\n    \r\n       if(msg.value > totalAmount)\r\n       {\r\n            uint refund = msg.value - totalAmount;\r\n        \r\n            msg.sender.transfer(refund);\r\n       }\r\n    \r\n       emit Deposit(msg.sender, msg.value);\r\n}\r\n    \r\n    function refundAmount(address payable _customer)\r\n                          external\r\n                          payable {\r\n        if(registrations[_customer].amount > 0){\r\n            if(address(this).balance >= registrations[_customer].amount) {\r\n    \r\n                ticketsSold = ticketsSold - registrations[_customer].noOfTickets;\r\n                registrations[_customer].noOfTickets = 0;\r\n                registrations[_customer].email = \" \";\r\n                uint refundCustAmount = registrations[_customer].amount;\r\n                registrations[_customer].amount = 0;\r\n                \r\n                _customer.transfer(refundCustAmount);\r\n                \r\n                emit Refund(_customer, refundCustAmount);\r\n        }\r\n    \r\n    }\r\n\r\n    }\r\n    \r\n    function withdraw()\r\n                     onlyOwner()\r\n                     external\r\n                     payable\r\n                     {\r\n        \r\n        owner.transfer(address(this).balance);\r\n                         \r\n    }\r\n    \r\n    function balanceOfRegistrant (address _buyer)\r\n                                  external\r\n                                  view\r\n                                  returns \r\n                                 (uint balance){\r\n    return registrations[_buyer].amount;\r\n   }\r\n   \r\n   function kill()\r\n            external\r\n            onlyOwner() {\r\n                \r\n        if(address(this).balance > 0)\r\n            owner.transfer(address(this).balance);\r\n            \r\n        selfdestruct(owner);            \r\n    }\r\n    \r\n    function() \r\n            external{\r\n        revert();\r\n    }\r\n    \r\n}\r\n    \r\n",
  "sourcePath": "D:/Project_Events/contracts/Event.sol",
  "compiler": {
    "name": "solc",
    "version": "0.5.16+commit.9c3226ce.Emscripten.clang"
  },
  "schemaVersion": "3.3.4",
  "updatedAt": "2021-04-22T05:56:50.623Z",
  "networkType": "ethereum",
  "devdoc": {
    "methods": {}
  },
  "userdoc": {
    "methods": {}
  }
}